{
  "_format": "hh-sol-artifact-1",
  "contractName": "TravelTrust",
  "sourceName": "contracts/TravelTrust.sol",
  "abi": [
    {
      "anonymous": false,
      "inputs": [
        {
          "indexed": true,
          "internalType": "address",
          "name": "user",
          "type": "address"
        },
        {
          "indexed": false,
          "internalType": "string",
          "name": "serviceId",
          "type": "string"
        },
        {
          "indexed": false,
          "internalType": "string",
          "name": "reviewText",
          "type": "string"
        }
      ],
      "name": "ReviewSubmitted",
      "type": "event"
    },
    {
      "anonymous": false,
      "inputs": [
        {
          "indexed": true,
          "internalType": "address",
          "name": "user",
          "type": "address"
        },
        {
          "indexed": false,
          "internalType": "string",
          "name": "serviceId",
          "type": "string"
        }
      ],
      "name": "ServiceBooked",
      "type": "event"
    },
    {
      "inputs": [
        {
          "internalType": "string",
          "name": "serviceId",
          "type": "string"
        }
      ],
      "name": "bookService",
      "outputs": [],
      "stateMutability": "nonpayable",
      "type": "function"
    },
    {
      "inputs": [
        {
          "internalType": "address",
          "name": "",
          "type": "address"
        },
        {
          "internalType": "uint256",
          "name": "",
          "type": "uint256"
        }
      ],
      "name": "bookings",
      "outputs": [
        {
          "internalType": "address",
          "name": "user",
          "type": "address"
        },
        {
          "internalType": "string",
          "name": "serviceId",
          "type": "string"
        },
        {
          "internalType": "bool",
          "name": "reviewed",
          "type": "bool"
        }
      ],
      "stateMutability": "view",
      "type": "function"
    },
    {
      "inputs": [
        {
          "internalType": "string",
          "name": "serviceId",
          "type": "string"
        }
      ],
      "name": "getReviews",
      "outputs": [
        {
          "components": [
            {
              "internalType": "address",
              "name": "user",
              "type": "address"
            },
            {
              "internalType": "string",
              "name": "serviceId",
              "type": "string"
            },
            {
              "internalType": "string",
              "name": "reviewText",
              "type": "string"
            },
            {
              "internalType": "uint256",
              "name": "timestamp",
              "type": "uint256"
            }
          ],
          "internalType": "struct TravelTrust.Review[]",
          "name": "",
          "type": "tuple[]"
        }
      ],
      "stateMutability": "view",
      "type": "function"
    },
    {
      "inputs": [
        {
          "internalType": "string",
          "name": "",
          "type": "string"
        },
        {
          "internalType": "uint256",
          "name": "",
          "type": "uint256"
        }
      ],
      "name": "serviceReviews",
      "outputs": [
        {
          "internalType": "address",
          "name": "user",
          "type": "address"
        },
        {
          "internalType": "string",
          "name": "serviceId",
          "type": "string"
        },
        {
          "internalType": "string",
          "name": "reviewText",
          "type": "string"
        },
        {
          "internalType": "uint256",
          "name": "timestamp",
          "type": "uint256"
        }
      ],
      "stateMutability": "view",
      "type": "function"
    },
    {
      "inputs": [
        {
          "internalType": "string",
          "name": "serviceId",
          "type": "string"
        },
        {
          "internalType": "string",
          "name": "reviewText",
          "type": "string"
        }
      ],
      "name": "submitReview",
      "outputs": [],
      "stateMutability": "nonpayable",
      "type": "function"
    },
    {
      "inputs": [
        {
          "internalType": "address",
          "name": "",
          "type": "address"
        },
        {
          "internalType": "string",
          "name": "",
          "type": "string"
        }
      ],
      "name": "userReviewed",
      "outputs": [
        {
          "internalType": "bool",
          "name": "",
          "type": "bool"
        }
      ],
      "stateMutability": "view",
      "type": "function"
    }
  ],
  "bytecode": "0x608060405234801561001057600080fd5b50611897806100206000396000f3fe608060405234801561001057600080fd5b50600436106100625760003560e01c80632978465d146100675780634d777292146100975780639c3f3e46146100b35780639c794e2a146100e35780639fb4e1cf14610115578063b2aa9f5e14610148575b600080fd5b610081600480360381019061007c9190610d0c565b610164565b60405161008e9190610f5a565b60405180910390f35b6100b160048036038101906100ac9190610d0c565b610365565b005b6100cd60048036038101906100c89190610fa8565b6104d0565b6040516100da919061101f565b60405180910390f35b6100fd60048036038101906100f89190611066565b610515565b60405161010c939291906110ff565b60405180910390f35b61012f600480360381019061012a919061113d565b610611565b60405161013f94939291906111a8565b60405180910390f35b610162600480360381019061015d91906111fb565b6107a4565b005b606060018260405161017691906112af565b9081526020016040518091039020805480602002602001604051908101604052809291908181526020016000905b8282101561035a57838290600052602060002090600402016040518060800160405290816000820160009054906101000a900473ffffffffffffffffffffffffffffffffffffffff1673ffffffffffffffffffffffffffffffffffffffff1673ffffffffffffffffffffffffffffffffffffffff16815260200160018201805461022d906112f5565b80601f0160208091040260200160405190810160405280929190818152602001828054610259906112f5565b80156102a65780601f1061027b576101008083540402835291602001916102a6565b820191906000526020600020905b81548152906001019060200180831161028957829003601f168201915b505050505081526020016002820180546102bf906112f5565b80601f01602080910402602001604051908101604052809291908181526020018280546102eb906112f5565b80156103385780601f1061030d57610100808354040283529160200191610338565b820191906000526020600020905b81548152906001019060200180831161031b57829003601f168201915b50505050508152602001600382015481525050815260200190600101906101a4565b505050509050919050565b6000803373ffffffffffffffffffffffffffffffffffffffff1673ffffffffffffffffffffffffffffffffffffffff16815260200190815260200160002060405180606001604052803373ffffffffffffffffffffffffffffffffffffffff16815260200183815260200160001515815250908060018154018082558091505060019003906000526020600020906003020160009091909190915060008201518160000160006101000a81548173ffffffffffffffffffffffffffffffffffffffff021916908373ffffffffffffffffffffffffffffffffffffffff160217905550602082015181600101908161045c91906114d2565b5060408201518160020160006101000a81548160ff02191690831515021790555050503373ffffffffffffffffffffffffffffffffffffffff167fa3b094fdc32874c82b1f98d06f991e68d35480390ceb9bfbb7114d8fa9d3feb9826040516104c591906115a4565b60405180910390a250565b6002602052816000526040600020818051602081018201805184825260208301602085012081835280955050505050506000915091509054906101000a900460ff1681565b6000602052816000526040600020818154811061053157600080fd5b9060005260206000209060030201600091509150508060000160009054906101000a900473ffffffffffffffffffffffffffffffffffffffff169080600101805461057b906112f5565b80601f01602080910402602001604051908101604052809291908181526020018280546105a7906112f5565b80156105f45780601f106105c9576101008083540402835291602001916105f4565b820191906000526020600020905b8154815290600101906020018083116105d757829003601f168201915b5050505050908060020160009054906101000a900460ff16905083565b600182805160208101820180518482526020830160208501208183528095505050505050818154811061064357600080fd5b9060005260206000209060040201600091509150508060000160009054906101000a900473ffffffffffffffffffffffffffffffffffffffff169080600101805461068d906112f5565b80601f01602080910402602001604051908101604052809291908181526020018280546106b9906112f5565b80156107065780601f106106db57610100808354040283529160200191610706565b820191906000526020600020905b8154815290600101906020018083116106e957829003601f168201915b50505050509080600201805461071b906112f5565b80601f0160208091040260200160405190810160405280929190818152602001828054610747906112f5565b80156107945780601f1061076957610100808354040283529160200191610794565b820191906000526020600020905b81548152906001019060200180831161077757829003601f168201915b5050505050908060030154905084565b60008060003373ffffffffffffffffffffffffffffffffffffffff1673ffffffffffffffffffffffffffffffffffffffff16815260200190815260200160002090506000805b8280549050811015610901578460405160200161080791906112af565b604051602081830303815290604052805190602001208382815481106108305761082f6115c6565b5b90600052602060002090600302016001016040516020016108519190611678565b604051602081830303815290604052805190602001201480156108a35750828181548110610882576108816115c6565b5b906000526020600020906003020160020160009054906101000a900460ff16155b156108ee576001915060018382815481106108c1576108c06115c6565b5b906000526020600020906003020160020160006101000a81548160ff021916908315150217905550610901565b80806108f9906116be565b9150506107ea565b5080610942576040517f08c379a000000000000000000000000000000000000000000000000000000000815260040161093990611778565b60405180910390fd5b600260003373ffffffffffffffffffffffffffffffffffffffff1673ffffffffffffffffffffffffffffffffffffffff1681526020019081526020016000208460405161098f91906112af565b908152602001604051809103902060009054906101000a900460ff16156109eb576040517f08c379a00000000000000000000000000000000000000000000000000000000081526004016109e29061180a565b60405180910390fd5b6001846040516109fb91906112af565b908152602001604051809103902060405180608001604052803373ffffffffffffffffffffffffffffffffffffffff16815260200186815260200185815260200142815250908060018154018082558091505060019003906000526020600020906004020160009091909190915060008201518160000160006101000a81548173ffffffffffffffffffffffffffffffffffffffff021916908373ffffffffffffffffffffffffffffffffffffffff1602179055506020820151816001019081610ac591906114d2565b506040820151816002019081610adb91906114d2565b506060820151816003015550506001600260003373ffffffffffffffffffffffffffffffffffffffff1673ffffffffffffffffffffffffffffffffffffffff16815260200190815260200160002085604051610b3791906112af565b908152602001604051809103902060006101000a81548160ff0219169083151502179055503373ffffffffffffffffffffffffffffffffffffffff167f34a00d1527ef547842bdd01183c96aff35c7b615b5da29dc6ba1524c2cf280f98585604051610ba492919061182a565b60405180910390a250505050565b6000604051905090565b600080fd5b600080fd5b600080fd5b600080fd5b6000601f19601f8301169050919050565b7f4e487b7100000000000000000000000000000000000000000000000000000000600052604160045260246000fd5b610c1982610bd0565b810181811067ffffffffffffffff82111715610c3857610c37610be1565b5b80604052505050565b6000610c4b610bb2565b9050610c578282610c10565b919050565b600067ffffffffffffffff821115610c7757610c76610be1565b5b610c8082610bd0565b9050602081019050919050565b82818337600083830152505050565b6000610caf610caa84610c5c565b610c41565b905082815260208101848484011115610ccb57610cca610bcb565b5b610cd6848285610c8d565b509392505050565b600082601f830112610cf357610cf2610bc6565b5b8135610d03848260208601610c9c565b91505092915050565b600060208284031215610d2257610d21610bbc565b5b600082013567ffffffffffffffff811115610d4057610d3f610bc1565b5b610d4c84828501610cde565b91505092915050565b600081519050919050565b600082825260208201905092915050565b6000819050602082019050919050565b600073ffffffffffffffffffffffffffffffffffffffff82169050919050565b6000610dac82610d81565b9050919050565b610dbc81610da1565b82525050565b600081519050919050565b600082825260208201905092915050565b60005b83811015610dfc578082015181840152602081019050610de1565b60008484015250505050565b6000610e1382610dc2565b610e1d8185610dcd565b9350610e2d818560208601610dde565b610e3681610bd0565b840191505092915050565b6000819050919050565b610e5481610e41565b82525050565b6000608083016000830151610e726000860182610db3565b5060208301518482036020860152610e8a8282610e08565b91505060408301518482036040860152610ea48282610e08565b9150506060830151610eb96060860182610e4b565b508091505092915050565b6000610ed08383610e5a565b905092915050565b6000602082019050919050565b6000610ef082610d55565b610efa8185610d60565b935083602082028501610f0c85610d71565b8060005b85811015610f485784840389528151610f298582610ec4565b9450610f3483610ed8565b925060208a01995050600181019050610f10565b50829750879550505050505092915050565b60006020820190508181036000830152610f748184610ee5565b905092915050565b610f8581610da1565b8114610f9057600080fd5b50565b600081359050610fa281610f7c565b92915050565b60008060408385031215610fbf57610fbe610bbc565b5b6000610fcd85828601610f93565b925050602083013567ffffffffffffffff811115610fee57610fed610bc1565b5b610ffa85828601610cde565b9150509250929050565b60008115159050919050565b61101981611004565b82525050565b60006020820190506110346000830184611010565b92915050565b61104381610e41565b811461104e57600080fd5b50565b6000813590506110608161103a565b92915050565b6000806040838503121561107d5761107c610bbc565b5b600061108b85828601610f93565b925050602061109c85828601611051565b9150509250929050565b6110af81610da1565b82525050565b600082825260208201905092915050565b60006110d182610dc2565b6110db81856110b5565b93506110eb818560208601610dde565b6110f481610bd0565b840191505092915050565b600060608201905061111460008301866110a6565b818103602083015261112681856110c6565b90506111356040830184611010565b949350505050565b6000806040838503121561115457611153610bbc565b5b600083013567ffffffffffffffff81111561117257611171610bc1565b5b61117e85828601610cde565b925050602061118f85828601611051565b9150509250929050565b6111a281610e41565b82525050565b60006080820190506111bd60008301876110a6565b81810360208301526111cf81866110c6565b905081810360408301526111e381856110c6565b90506111f26060830184611199565b95945050505050565b6000806040838503121561121257611211610bbc565b5b600083013567ffffffffffffffff8111156112305761122f610bc1565b5b61123c85828601610cde565b925050602083013567ffffffffffffffff81111561125d5761125c610bc1565b5b61126985828601610cde565b9150509250929050565b600081905092915050565b600061128982610dc2565b6112938185611273565b93506112a3818560208601610dde565b80840191505092915050565b60006112bb828461127e565b915081905092915050565b7f4e487b7100000000000000000000000000000000000000000000000000000000600052602260045260246000fd5b6000600282049050600182168061130d57607f821691505b6020821081036113205761131f6112c6565b5b50919050565b60008190508160005260206000209050919050565b60006020601f8301049050919050565b600082821b905092915050565b6000600883026113887fffffffffffffffffffffffffffffffffffffffffffffffffffffffffffffffff8261134b565b611392868361134b565b95508019841693508086168417925050509392505050565b6000819050919050565b60006113cf6113ca6113c584610e41565b6113aa565b610e41565b9050919050565b6000819050919050565b6113e9836113b4565b6113fd6113f5826113d6565b848454611358565b825550505050565b600090565b611412611405565b61141d8184846113e0565b505050565b5b818110156114415761143660008261140a565b600181019050611423565b5050565b601f8211156114865761145781611326565b6114608461133b565b8101602085101561146f578190505b61148361147b8561133b565b830182611422565b50505b505050565b600082821c905092915050565b60006114a96000198460080261148b565b1980831691505092915050565b60006114c28383611498565b9150826002028217905092915050565b6114db82610dc2565b67ffffffffffffffff8111156114f4576114f3610be1565b5b6114fe82546112f5565b611509828285611445565b600060209050601f83116001811461153c576000841561152a578287015190505b61153485826114b6565b86555061159c565b601f19841661154a86611326565b60005b828110156115725784890151825560018201915060208501945060208101905061154d565b8683101561158f578489015161158b601f891682611498565b8355505b6001600288020188555050505b505050505050565b600060208201905081810360008301526115be81846110c6565b905092915050565b7f4e487b7100000000000000000000000000000000000000000000000000000000600052603260045260246000fd5b60008154611602816112f5565b61160c8186611273565b94506001821660008114611627576001811461163c5761166f565b60ff198316865281151582028601935061166f565b61164585611326565b60005b8381101561166757815481890152600182019150602081019050611648565b838801955050505b50505092915050565b600061168482846115f5565b915081905092915050565b7f4e487b7100000000000000000000000000000000000000000000000000000000600052601160045260246000fd5b60006116c982610e41565b91507fffffffffffffffffffffffffffffffffffffffffffffffffffffffffffffffff82036116fb576116fa61168f565b5b600182019050919050565b7f4e6f20626f6f6b696e6720666f756e64206f7220616c7265616479207265766960008201527f657765642e000000000000000000000000000000000000000000000000000000602082015250565b60006117626025836110b5565b915061176d82611706565b604082019050919050565b6000602082019050818103600083015261179181611755565b9050919050565b7f596f75206861766520616c72656164792072657669657765642074686973207360008201527f6572766963652e00000000000000000000000000000000000000000000000000602082015250565b60006117f46027836110b5565b91506117ff82611798565b604082019050919050565b60006020820190508181036000830152611823816117e7565b9050919050565b6000604082019050818103600083015261184481856110c6565b9050818103602083015261185881846110c6565b9050939250505056fea2646970667358221220cbc312841fe39030527cb43013e35aca0b2e7cbc46bee464a155a4c8370c501264736f6c63430008120033",
  "linkReferences": {},
  "deployedLinkReferences": {}
}