{
  "_format": "hh-sol-artifact-1",
  "contractName": "TravelTrust",
  "sourceName": "contracts/TravelTrust.sol",
  "abi": [
    {
      "inputs": [
        {
          "internalType": "string",
          "name": "serviceId",
          "type": "string"
        }
      ],
      "name": "bookService",
      "outputs": [],
      "stateMutability": "nonpayable",
      "type": "function"
    },
    {
      "inputs": [
        {
          "internalType": "address",
          "name": "",
          "type": "address"
        },
        {
          "internalType": "uint256",
          "name": "",
          "type": "uint256"
        }
      ],
      "name": "bookings",
      "outputs": [
        {
          "internalType": "address",
          "name": "user",
          "type": "address"
        },
        {
          "internalType": "string",
          "name": "serviceId",
          "type": "string"
        },
        {
          "internalType": "bool",
          "name": "reviewed",
          "type": "bool"
        }
      ],
      "stateMutability": "view",
      "type": "function"
    },
    {
      "inputs": [],
      "name": "getReviews",
      "outputs": [
        {
          "components": [
            {
              "internalType": "address",
              "name": "user",
              "type": "address"
            },
            {
              "internalType": "string",
              "name": "serviceId",
              "type": "string"
            },
            {
              "internalType": "string",
              "name": "reviewText",
              "type": "string"
            },
            {
              "internalType": "uint256",
              "name": "timestamp",
              "type": "uint256"
            }
          ],
          "internalType": "struct TravelTrust.Review[]",
          "name": "",
          "type": "tuple[]"
        }
      ],
      "stateMutability": "view",
      "type": "function"
    },
    {
      "inputs": [
        {
          "internalType": "uint256",
          "name": "",
          "type": "uint256"
        }
      ],
      "name": "reviews",
      "outputs": [
        {
          "internalType": "address",
          "name": "user",
          "type": "address"
        },
        {
          "internalType": "string",
          "name": "serviceId",
          "type": "string"
        },
        {
          "internalType": "string",
          "name": "reviewText",
          "type": "string"
        },
        {
          "internalType": "uint256",
          "name": "timestamp",
          "type": "uint256"
        }
      ],
      "stateMutability": "view",
      "type": "function"
    },
    {
      "inputs": [
        {
          "internalType": "string",
          "name": "serviceId",
          "type": "string"
        },
        {
          "internalType": "string",
          "name": "reviewText",
          "type": "string"
        }
      ],
      "name": "submitReview",
      "outputs": [],
      "stateMutability": "nonpayable",
      "type": "function"
    }
  ],
  "bytecode": "0x608060405234801561001057600080fd5b5061145c806100206000396000f3fe608060405234801561001057600080fd5b50600436106100575760003560e01c80631b1e13241461005c5780634d7772921461007a5780639c794e2a14610096578063b2aa9f5e146100c8578063e83ddcea146100e4575b600080fd5b610064610117565b6040516100719190610b1e565b60405180910390f35b610094600480360381019061008f9190610c89565b6102fa565b005b6100b060048036038101906100ab9190610d2a565b610417565b6040516100bf93929190610dde565b60405180910390f35b6100e260048036038101906100dd9190610e1c565b610513565b005b6100fe60048036038101906100f99190610e94565b610798565b60405161010e9493929190610ed0565b60405180910390f35b60606001805480602002602001604051908101604052809291908181526020016000905b828210156102f157838290600052602060002090600402016040518060800160405290816000820160009054906101000a900473ffffffffffffffffffffffffffffffffffffffff1673ffffffffffffffffffffffffffffffffffffffff1673ffffffffffffffffffffffffffffffffffffffff1681526020016001820180546101c490610f52565b80601f01602080910402602001604051908101604052809291908181526020018280546101f090610f52565b801561023d5780601f106102125761010080835404028352916020019161023d565b820191906000526020600020905b81548152906001019060200180831161022057829003601f168201915b5050505050815260200160028201805461025690610f52565b80601f016020809104026020016040519081016040528092919081815260200182805461028290610f52565b80156102cf5780601f106102a4576101008083540402835291602001916102cf565b820191906000526020600020905b8154815290600101906020018083116102b257829003601f168201915b505050505081526020016003820154815250508152602001906001019061013b565b50505050905090565b6000803373ffffffffffffffffffffffffffffffffffffffff1673ffffffffffffffffffffffffffffffffffffffff16815260200190815260200160002060405180606001604052803373ffffffffffffffffffffffffffffffffffffffff16815260200183815260200160001515815250908060018154018082558091505060019003906000526020600020906003020160009091909190915060008201518160000160006101000a81548173ffffffffffffffffffffffffffffffffffffffff021916908373ffffffffffffffffffffffffffffffffffffffff16021790555060208201518160010190816103f1919061112f565b5060408201518160020160006101000a81548160ff021916908315150217905550505050565b6000602052816000526040600020818154811061043357600080fd5b9060005260206000209060030201600091509150508060000160009054906101000a900473ffffffffffffffffffffffffffffffffffffffff169080600101805461047d90610f52565b80601f01602080910402602001604051908101604052809291908181526020018280546104a990610f52565b80156104f65780601f106104cb576101008083540402835291602001916104f6565b820191906000526020600020905b8154815290600101906020018083116104d957829003601f168201915b5050505050908060020160009054906101000a900460ff16905083565b60008060003373ffffffffffffffffffffffffffffffffffffffff1673ffffffffffffffffffffffffffffffffffffffff16815260200190815260200160002090506000805b82805490508110156106705784604051602001610576919061123d565b6040516020818303038152906040528051906020012083828154811061059f5761059e611254565b5b90600052602060002090600302016001016040516020016105c09190611306565b6040516020818303038152906040528051906020012014801561061257508281815481106105f1576105f0611254565b5b906000526020600020906003020160020160009054906101000a900460ff16155b1561065d576001915060018382815481106106305761062f611254565b5b906000526020600020906003020160020160006101000a81548160ff021916908315150217905550610670565b80806106689061134c565b915050610559565b50806106b1576040517f08c379a00000000000000000000000000000000000000000000000000000000081526004016106a890611406565b60405180910390fd5b600160405180608001604052803373ffffffffffffffffffffffffffffffffffffffff16815260200186815260200185815260200142815250908060018154018082558091505060019003906000526020600020906004020160009091909190915060008201518160000160006101000a81548173ffffffffffffffffffffffffffffffffffffffff021916908373ffffffffffffffffffffffffffffffffffffffff160217905550602082015181600101908161076f919061112f565b506040820151816002019081610785919061112f565b5060608201518160030155505050505050565b600181815481106107a857600080fd5b90600052602060002090600402016000915090508060000160009054906101000a900473ffffffffffffffffffffffffffffffffffffffff16908060010180546107f190610f52565b80601f016020809104026020016040519081016040528092919081815260200182805461081d90610f52565b801561086a5780601f1061083f5761010080835404028352916020019161086a565b820191906000526020600020905b81548152906001019060200180831161084d57829003601f168201915b50505050509080600201805461087f90610f52565b80601f01602080910402602001604051908101604052809291908181526020018280546108ab90610f52565b80156108f85780601f106108cd576101008083540402835291602001916108f8565b820191906000526020600020905b8154815290600101906020018083116108db57829003601f168201915b5050505050908060030154905084565b600081519050919050565b600082825260208201905092915050565b6000819050602082019050919050565b600073ffffffffffffffffffffffffffffffffffffffff82169050919050565b600061095f82610934565b9050919050565b61096f81610954565b82525050565b600081519050919050565b600082825260208201905092915050565b60005b838110156109af578082015181840152602081019050610994565b60008484015250505050565b6000601f19601f8301169050919050565b60006109d782610975565b6109e18185610980565b93506109f1818560208601610991565b6109fa816109bb565b840191505092915050565b6000819050919050565b610a1881610a05565b82525050565b6000608083016000830151610a366000860182610966565b5060208301518482036020860152610a4e82826109cc565b91505060408301518482036040860152610a6882826109cc565b9150506060830151610a7d6060860182610a0f565b508091505092915050565b6000610a948383610a1e565b905092915050565b6000602082019050919050565b6000610ab482610908565b610abe8185610913565b935083602082028501610ad085610924565b8060005b85811015610b0c5784840389528151610aed8582610a88565b9450610af883610a9c565b925060208a01995050600181019050610ad4565b50829750879550505050505092915050565b60006020820190508181036000830152610b388184610aa9565b905092915050565b6000604051905090565b600080fd5b600080fd5b600080fd5b600080fd5b7f4e487b7100000000000000000000000000000000000000000000000000000000600052604160045260246000fd5b610b96826109bb565b810181811067ffffffffffffffff82111715610bb557610bb4610b5e565b5b80604052505050565b6000610bc8610b40565b9050610bd48282610b8d565b919050565b600067ffffffffffffffff821115610bf457610bf3610b5e565b5b610bfd826109bb565b9050602081019050919050565b82818337600083830152505050565b6000610c2c610c2784610bd9565b610bbe565b905082815260208101848484011115610c4857610c47610b59565b5b610c53848285610c0a565b509392505050565b600082601f830112610c7057610c6f610b54565b5b8135610c80848260208601610c19565b91505092915050565b600060208284031215610c9f57610c9e610b4a565b5b600082013567ffffffffffffffff811115610cbd57610cbc610b4f565b5b610cc984828501610c5b565b91505092915050565b610cdb81610954565b8114610ce657600080fd5b50565b600081359050610cf881610cd2565b92915050565b610d0781610a05565b8114610d1257600080fd5b50565b600081359050610d2481610cfe565b92915050565b60008060408385031215610d4157610d40610b4a565b5b6000610d4f85828601610ce9565b9250506020610d6085828601610d15565b9150509250929050565b610d7381610954565b82525050565b600082825260208201905092915050565b6000610d9582610975565b610d9f8185610d79565b9350610daf818560208601610991565b610db8816109bb565b840191505092915050565b60008115159050919050565b610dd881610dc3565b82525050565b6000606082019050610df36000830186610d6a565b8181036020830152610e058185610d8a565b9050610e146040830184610dcf565b949350505050565b60008060408385031215610e3357610e32610b4a565b5b600083013567ffffffffffffffff811115610e5157610e50610b4f565b5b610e5d85828601610c5b565b925050602083013567ffffffffffffffff811115610e7e57610e7d610b4f565b5b610e8a85828601610c5b565b9150509250929050565b600060208284031215610eaa57610ea9610b4a565b5b6000610eb884828501610d15565b91505092915050565b610eca81610a05565b82525050565b6000608082019050610ee56000830187610d6a565b8181036020830152610ef78186610d8a565b90508181036040830152610f0b8185610d8a565b9050610f1a6060830184610ec1565b95945050505050565b7f4e487b7100000000000000000000000000000000000000000000000000000000600052602260045260246000fd5b60006002820490506001821680610f6a57607f821691505b602082108103610f7d57610f7c610f23565b5b50919050565b60008190508160005260206000209050919050565b60006020601f8301049050919050565b600082821b905092915050565b600060088302610fe57fffffffffffffffffffffffffffffffffffffffffffffffffffffffffffffffff82610fa8565b610fef8683610fa8565b95508019841693508086168417925050509392505050565b6000819050919050565b600061102c61102761102284610a05565b611007565b610a05565b9050919050565b6000819050919050565b61104683611011565b61105a61105282611033565b848454610fb5565b825550505050565b600090565b61106f611062565b61107a81848461103d565b505050565b5b8181101561109e57611093600082611067565b600181019050611080565b5050565b601f8211156110e3576110b481610f83565b6110bd84610f98565b810160208510156110cc578190505b6110e06110d885610f98565b83018261107f565b50505b505050565b600082821c905092915050565b6000611106600019846008026110e8565b1980831691505092915050565b600061111f83836110f5565b9150826002028217905092915050565b61113882610975565b67ffffffffffffffff81111561115157611150610b5e565b5b61115b8254610f52565b6111668282856110a2565b600060209050601f8311600181146111995760008415611187578287015190505b6111918582611113565b8655506111f9565b601f1984166111a786610f83565b60005b828110156111cf578489015182556001820191506020850194506020810190506111aa565b868310156111ec57848901516111e8601f8916826110f5565b8355505b6001600288020188555050505b505050505050565b600081905092915050565b600061121782610975565b6112218185611201565b9350611231818560208601610991565b80840191505092915050565b6000611249828461120c565b915081905092915050565b7f4e487b7100000000000000000000000000000000000000000000000000000000600052603260045260246000fd5b6000815461129081610f52565b61129a8186611201565b945060018216600081146112b557600181146112ca576112fd565b60ff19831686528115158202860193506112fd565b6112d385610f83565b60005b838110156112f5578154818901526001820191506020810190506112d6565b838801955050505b50505092915050565b60006113128284611283565b915081905092915050565b7f4e487b7100000000000000000000000000000000000000000000000000000000600052601160045260246000fd5b600061135782610a05565b91507fffffffffffffffffffffffffffffffffffffffffffffffffffffffffffffffff82036113895761138861131d565b5b600182019050919050565b7f4e6f20626f6f6b696e6720666f756e64206f7220616c7265616479207265766960008201527f657765642e000000000000000000000000000000000000000000000000000000602082015250565b60006113f0602583610d79565b91506113fb82611394565b604082019050919050565b6000602082019050818103600083015261141f816113e3565b905091905056fea26469706673582212202c2108de9def2b83a23bfa2a27ff3f3ed3cae15985a9bce509e3019c07f21a7864736f6c63430008120033",
  "linkReferences": {},
  "deployedLinkReferences": {}
}